:06000000020017115E3240
:1000130002005E32D2AFD288D28AD2A8D2AA743872
:100023001151740C11517401115174021151740660
:0F00330011517480115179409001C5E9931177F3
:0F004200D9FA7E19B900F5741C1151DEF780F35D
:0F0051001184F590C2A0C2A1D2A2C2A222119224
:100060007940740C115174011151740211517406CC
:0F007000115174801151221184F590D2A0C2A1B8
:0F007F00D2A2C2A222D297C2A0D2A1D2A2C2A262
:0E008E002097F922BE190490078522BE18049F
:0E009C0090074522BE170490070522BE1604E9
:0E00AA009006C522BE150490068522BE1404E1
:0E00B80090064522BE130490060522BE1204D7
:0E00C6009005C522BE110490058522BE1004CF
:0E00D40090054522BE0F0490050522BE0E04C5
:0E00E2009004C522BE0D0490048522BE0C04BD
:0E00F00090044522BE0B0490040522BE0A04B3
:0E00FE009003C522BE090490038522BE0804AB
:0E010C0090034522BE070490030522BE0604A0
:0E011A009002C522BE050490028522BE060496
:0E01280090024522BE060490020522BE060487
:100136009001C522BE060490018522900145222029
:10014600202020202020202020202E796C7463651A
:1001560072726F632064656C6C6174736E6920657E
:100166006220746F6E20746867696D2072657669A7
:100176007264207265746E6972702072756F792070
:100186002020202020202020202020202020202069
:1001960020202020202020202E74726F6241202EE5
:1001A600646574636574656420746E656D65676403
:1001B6006972666E6920746867697279706F432028
:1001C6002020202020202020202020202020202029
:1001D6002020202020202020202020202E2E2E33DC
:1001E60034384746445020676EBCC3736D61532054
:1001F6007265746E69727020676E69746F6F4220E3
:100206002020202020202020202020202020202EDA
:1002160065756E69746E6F63206F74203446202B8B
:1002260020746C61202B206C72746320737365726A
:100236007020657361656C50203A524F52524520CA
:10024600202074736963616D7261687020726F201B
:10025600726F74636F642072756F79206B7361209F
:10026600646E6120747265736E69206B63617020C1
:10027600656874206461657220657361656C7020C1
:100286002020202020202020202020202020202068
:100296002020202020202020202020202020202058
:1002A600202020202020796877204B44492048428E
:1002B60054202E746E69727020746F6E6E614320C6
:1002C6002020202020202020202020202020202028
:1002D6002020202020202020202020202020202018
:1002E6002020202E796C7065656420747265736EAB
:1002F60049202E72657061502064616F6C655220D2
:1003060020202020202020202020202020202020E7
:1003160020202020202020202020207265746E6955
:10032600727020676E75736D6173206F74207463CD
:10033600656E6E6F63206F7420656C62616E7520EA
:10034600202E657275746165662073696874206510
:100356006C62616E65206F74206D75696D65725093
:100366002D746E69725020746547202E6465747210
:100376006F7070757320746F6E20726F6C6F432090
:100386002020202020202020202020202020202067
:100396002020206D6F632E6275686E726F70206FFD
:1003A60074206E6F697463656E6E6F632074656E1C
:1003B6007265746E69206F6E203A726F7272452094
:1003C600202020202020202020206E6961676120C7
:1003D6006E6F20646E612066666F207265746E694A
:1003E600727020656874206E72757420657361651D
:1003F6006C70203A726961706572206465656E2062
:1004060020202020202020202020202020202020E6
:1004160020202020202020202020202020202020D6
:1004260020202020203F6C6C6120746120746E694E
:1004360072702049206E6163203A726F7272452095
:1004460020202020202020202020202020202020A6
:100456002020202020202020202020202020202096
:100466002020202020202021746F70616574206177
:10047600206D2749203A38313420726F7272452038
:100486002020202020202020202020202020202066
:100496002020202020202020202021646574726FD7
:1004A6007070757320746F6E20796C696D6166204B
:1004B600746E6F66203A33363820726F727245203A
:1004C60020202020202020202020202E65756575E4
:1004D6007120746E697270206E69206B6375747317
:1004E60020746E656D75636F44202E7261656C6352
:1004F6006E7520736E6F697463757274736E4920BE
:1005060020202020202020202020202020202020E5
:1005160020202020202020202020202020202020D5
:100526002020202020646E756F6620746F6E207206
:1005360065706150203A34303420726F72724520F3
:1005460020202020202020202020202020202020A5
:10055600202020202021636E6920776F6C6C6579DE
:10056600206C6C6966657220657361656C70202EFF
:100576007974706D6520636E69206B63616C6220AF
:100586002020202020202020202020202020202065
:100596002020202020202020202020202E2E2E77D4
:1005A6006F6E6B2074276E6F642069202E2E2E6569
:1005B6006279616D20216D616A20726570617020BB
:1005C6002020202020202020202020202020202025
:1005D6002020202020202020202020202020202015
:1005E6002020202021796461657220746F6E20724C
:1005F60065746E697270203A676E696E7261572013
:1006060020202020202020202020202020202020E4
:1006160020202020217365676170205444782DBF07
:10062600C2262520746E697270206F7420656C6214
:10063600616E7520736177207265746E69727020C1
:1006460020202020202020202020202020202E7244
:1006560065746E6972702073696874206E6F2064A9
:100666006574726F7070757320746F6E2073692075
:10067600676E69746E697270203A726F7272452085
:100686002020202020202020202020202020202064
:100696002020202020202020202020202020202054
:1006A6002020202020202E646574636574656420F4
:1006B600726F727265206F4E203A726F72724520A9
:1006C6002020202020202020202020202020202024
:1006D600202020202020202020202E2E2E726F72F7
:1006E6007265206E776F6E6B6E75206E6120656227
:1006F600206F7420736D656573206572656874205C
:1007060020202020202020202020202020202020E3
:1007160020202020202020202020202020202020D3
:10072600202021746867696E207961646E75732074
:100736006E6F20746E69727020746F6E6E614320E6
:1007460020202020202020202020202020202020A3
:100756002020202020202020202020202020202093
:1007660020202020202021796C6C756673736563C8
:100776006375732064656C696166206B73617420B0
:100786002020202020202020202020202020202063
:1007960021646567616D616420726F20676E69739D
:1007A60073696D206562206F742072616570706177
:0F07B6002073656764697274726163206B6E698A
:00000001FF
